:100000000C9435000C945D000C945D000C945D0024
:100010000C945D000C945D000C945D000C945D00EC
:100020000C945D000C945D000C945D000C945D00DC
:100030000C945D000C945D000C945D000C945D00CC
:100040000C94B3030C945D000C945E020C94A1021A
:100050000C945D000C945D000C945D000C945D00AC
:100060000C945D000C945D005D0311241FBECFEF66
:10007000D8E0DEBFCDBF11E0A0E0B1E0E6E0FAE0FD
:1000800002C005900D92A431B107D9F721E0A4E197
:10009000B1E001C01D92A93CB207E1F710E0CAE649
:1000A000D0E004C02297FE010E94EE04C836D107BA
:1000B000C9F70E949B010C9495040C94000040E841
:1000C00055E260E070E086E191E00C94DC026CE2C5
:1000D00071E080E090E00E94A8016CE271E080E0B5
:1000E00090E00E94A80160911401709115014AE00E
:1000F00050E086E191E00E9483018091140190918B
:100100001501019690931501809314010895CF92E3
:10011000DF92EF92FF920F931F93CF93DF936C01C7
:100120007A01EB01E60EF71E00E010E0CE15DF05C8
:1001300061F06991D601ED91FC910190F081E02D83
:10014000C6010995080F191FF1CFC801DF91CF91A2
:100150001F910F91FF90EF90DF90CF900895611560
:10016000710581F0DB010D900020E9F7AD014150F0
:100170005109461B570BDC01ED91FC910280F38184
:10018000E02D099480E090E00895DC01ED91FC9170
:100190000190F081E02D09940F931F93CF93DF938B
:1001A000EC016DE00E94C5008C016AE0CE010E9466
:1001B000C500800F911FDF91CF911F910F9108957E
:1001C0008F929F92AF92BF92CF92DF92EF92FF9267
:1001D0000F931F93CF93DF93CDB7DEB7A1970FB6E1
:1001E000F894DEBF0FBECDBF7C01C42EE52FCB013E
:1001F000D22E19A221E02D1510F02AE0D22E8E0168
:100200000F5D1F4F8D2C912CA12CB12C6C2D7E2FAE
:10021000A50194010E9498048C2DD29E801911246E
:10022000015011098A3014F4805D01C0895CF80125
:100230008083211531054105510521F0C22EE32FA0
:10024000CA01E4CFB801C7010E94AF00A1960FB662
:10025000F894DEBF0FBECDBFDF91CF911F910F91FC
:10026000FF90EF90DF90CF90BF90AF909F908F90D6
:100270000895CF92DF92EF92FF920F931F93CF9347
:10028000DF93EC016A017B012115310579F4E881E6
:10029000F9810190F081E02D642FDF91CF911F91C2
:1002A0000F91FF90EF90DF90CF9009942A303105A5
:1002B000E9F477FF1AC06DE20E94C5008C01442763
:1002C0005527BA014C195D096E097F092AE0CE0154
:1002D0000E94E000800F911FDF91CF911F910F913D
:1002E000FF90EF90DF90CF9008952AE0B701A6012C
:1002F000CE01DF91CF911F910F91FF90EF90DF9092
:10030000CF900C94E0000F931F93CF93DF93EC01F9
:100310009A01AB01662757FD6095762F0E9439013F
:100320008C01CE010E94CC00800F911FDF91CF91F4
:100330001F910F9108950E94FD030E945F00C8E97C
:10034000D2E00E9467002097E1F30E949802F9CF63
:10035000CF93DF9300D000D0CDB7DEB79B01AC01C7
:10036000611571058105910569F069833A834B83B5
:100370005C830E94870429813A814B815C810E94C1
:10038000BA0403C060E070E0CB010F900F900F90B3
:100390000F90DF91CF910895FC0124853585F901F7
:1003A000E05CFF4F80819181329620813181821BF8
:1003B000930B8F7399270895FC0184859585FC0123
:1003C000E05CFF4F4081518132962081318142179C
:1003D000530741F00190F081E02DE80FF91F808173
:1003E00090E008958FEF9FEF0895FC018485958537
:1003F000FC01E05CFF4F40815181329620813181C8
:100400004217530779F0A081B181A80FB91F8C91D1
:10041000208131812F5F3F4F2F733327318320831A
:1004200090E008958FEF9FEF0895FC0181A188234C
:1004300029F0A489B5898C9186FFFBCF11A208957C
:10044000CF93DF93FC0126853785D901A05CBF4F90
:100450008D919C91119701968F739927E901CE5B3D
:10046000DF4F4881598184179507D9F30D90BC91CE
:10047000A02DA20FB31F6C93A685B785A05CBF4FBC
:1004800011969C938E93A689B7892C9181E090E078
:10049000078C02C0880F991F0A94E2F7282B2C932F
:1004A00081E081A30488F589E02D808180648083C8
:1004B00081E090E0DF91CF91089508951F920F920F
:1004C0000FB60F9211242F933F934F938F939F93C7
:1004D000EF93FF938091C00082FD1CC04091C60045
:1004E0008091BC019091BD0101968F739927209155
:1004F000BE013091BF018217930771F0E091BC01FA
:10050000F091BD01E458FE4F40839093BD0180936C
:10051000BC0102C08091C600FF91EF919F918F9125
:100520004F913F912F910F900FBE0F901F901895F4
:1005300086E191E00E94CC01892B11F00C945D02C0
:1005400008951F920F920FB60F9211242F933F938D
:100550008F939F93EF93FF932091780130917901CE
:1005600080917A0190917B012817390731F48091AD
:10057000C1008F7D8093C10014C0E0917A01F09199
:100580007B01E85CFE4F208180917A0190917B0194
:1005900001968F73992790937B0180937A01209322
:1005A000C600FF91EF919F918F913F912F910F90F6
:1005B0000FBE0F901F901895CF92DF92EF92FF928F
:1005C000CF93DF93EC016A017B01411581EE58075F
:1005D00061057105F9F0EC89FD8981E090E008A0E2
:1005E00002C0880F991F0A94E2F7808360E079E0E7
:1005F0008DE390E0A70196010E94980421503109F3
:10060000410951095695479537952795211580E160
:10061000380798F0EC89FD89108260E874E88EE173
:1006200090E0A70196010E949804215031094109E8
:1006300051095695479537952795E889F98930836B
:10064000EA89FB89208319A2EE89FF89408181E034
:1006500090E09C010C8C02C0220F331F0A94E2F739
:10066000422B4083EE89FF8940819C010D8C02C0A2
:10067000220F331F0A94E2F7422B4083EE89FF8951
:1006800040819C010E8C02C0220F331F0A94E2F7B6
:10069000422B4083EE89FF8920810F8C02C0880F96
:1006A000991F0A94E2F7809582238083DF91CF918E
:1006B000FF90EF90DF90CF90089510921901109263
:1006C000180188EE93E0A0E0B0E080931A019093C7
:1006D0001B01A0931C01B0931D0188E091E0909351
:1006E0001701809316018CE791E09093230180938A
:1006F000220188E391E0909325018093240185EC09
:1007000090E0909327018093260184EC90E09093F1
:1007100029018093280180EC90E090932B01809335
:100720002A0181EC90E090932D0180932C0182ECC2
:1007300090E090932F0180932E0186EC90E09093AF
:1007400031018093300184E08093320183E0809313
:10075000330187E08093340185E08093350181E0A7
:100760008093360108951F920F920FB60F921124B5
:100770002F933F938F939F93AF93BF938091C1012A
:100780009091C201A091C301B091C4013091C00108
:1007900023E0230F2D3720F40196A11DB11D05C0C4
:1007A00026E8230F0296A11DB11D2093C00180935E
:1007B000C1019093C201A093C301B093C401809181
:1007C000C5019091C601A091C701B091C8010196E1
:1007D000A11DB11D8093C5019093C601A093C701CF
:1007E000B093C801BF91AF919F918F913F912F918D
:1007F0000F900FBE0F901F901895789484B582606B
:1008000084BD84B5816084BD85B5826085BD85B5B4
:10081000816085BDEEE6F0E0808181608083E1E863
:10082000F0E010828081826080838081816080839B
:10083000E0E8F0E0808181608083E1EBF0E080819E
:1008400084608083E0EBF0E0808181608083EAE770
:10085000F0E08081846080838081826080838081F9
:10086000816080838081806880831092C1000895B8
:100870008F929F92AF92BF92CF92DF92EF92FF92B0
:10088000CF93DF93EC01688179818A819B81611527
:1008900071058105910521F464E279ED8BE597E01E
:1008A0002DE133EF41E050E00E94BA0449015A01C2
:1008B0009B01AC01A7EAB1E40E94D9046B017C0161
:1008C000ACEEB4EFA50194010E94E704C60ED71E5A
:1008D000E81EF91EF7FE06C081E0C81AD108E1083B
:1008E00080E8F80AC882D982EA82FB82C701B60191
:1008F0009F77DF91CF91FF90EF90DF90CF90BF90E7
:10090000AF909F908F9008950E943804089580E0E2
:1009100091E00E94380408956093000170930101F2
:1009200080930201909303010895F8940C940105BB
:10093000A1E21A2EAA1BBB1BFD010DC0AA1FBB1FE3
:10094000EE1FFF1FA217B307E407F50720F0A21B55
:10095000B30BE40BF50B661F771F881F991F1A94C2
:1009600069F760957095809590959B01AC01BD01EC
:10097000CF010895052E97FB1EF400940E94D10428
:1009800057FD07D00E94980407FC03D04EF40C9446
:10099000D10450954095309521953F4F4F4F5F4F73
:1009A000089590958095709561957F4F8F4F9F4FDB
:1009B00008950E94F204A59F900DB49F900DA49FEE
:1009C000800D911D11240895B7FF0C94D9040E9445
:1009D000D904821B930B0895EE0FFF1F0590F4912D
:1009E000E02D0994A29FB001B39FC001A39F700D99
:1009F000811D1124911DB29F700D811D1124911D27
:060A00000895F894FFCFF9
:100A0600010000000000000020028700CC01F50173
:040A1600DC011502E8
:00000001FF
